:020000020000FC
:1020000007EB0093E50000E10093E6000FE000938A
:10201000E70000E80093E40008950F921F920F93E9
:102020001F932F933F93AF93BF93EF93FF93125060
:10203000003249F00A3220F0013610F40C942410DA
:1020400000E60C9424100CE20A52000F000FE4E9A1
:10205000F0E20024E00FF01DACEEBB27212F169517
:10206000A10F34E000EF20FD0295059020FD0294C1
:102070001C90102210281C9215963A95B1F7FF91EA
:10208000EF91BF91AF913F912F911F910F911F90B1
:102090000F900895080A0A0E00080A0200000000C6
:1020A00000000A0001050A000800000409050505F2
:1020B0000801010001010E0101010B0100050B00E7
:1020C00001040B0101040F010101010001050F01D1
:1020D00001050B01000200040000000008000008D8
:1020E00000000A01000200040000000000000000DF
:1020F00001050F000109090301040401010901039D
:1021000001040E0101040E0001040D0100050F0081
:10211000000800020001050108040608000404018B
:1021200008070500000705080105050101050E0067
:102130000105050901050E08010200090108000258
:1021400000050501080404040005050C0802000C44
:102150000802000209000005010404010002000851
:10216000010101010000000000000001090F0F0F34
:040000000C9400015B
:100200000FEF0DBF04E00EBF0E9400100E94F70127
:100210000E9414010E941A010E9439010E94530198
:100220000E9468010E9478010E94D50151E462E4B5
:1002300073E4089503E512E00E940D1004E513E055
:100240000E940D1001E414E00E940D1002E515E07B
:100250000E940D1004E516E00E940D100E94EE01B0
:100260000E940702413031F70E94C8010E94D50167
:1002700008955395639573950E94C101052F12E06F
:100280000E940D10062F13E00E940D10072F14E09E
:100290000E940D100E94EE010E940702413049F7B2
:1002A0000E94C8010895539563950E94C101052FCE
:1002B00012E00E940D10062F13E00E940D100E9404
:1002C000EE010E940702413071F70E94C8010895B3
:1002D00053950E94C101052F12E00E940D100E944B
:1002E000EE010E940702413099F70E94C80108956B
:1002F0000E94EE0183E0571B21F4671B11F40C945C
:100300009F010CE412E00E940D100FE413E00E9424
:100310000D1003E514E00E940D1005E415E00E94A5
:100320000D1002E516E00E940D100E94EE018A9564
:10033000A1F10E94D5010E94EE010C94810107E514
:1003400012E00E940D1009E413E00E940D100EE46B
:1003500014E00E940D100EE415E00E940D1005E45B
:1003600016E00E940D1002E517E00E940D100E9499
:10037000EE018A9591F00E94D5010E94EE010C9445
:100380009F0152FD51E462FD61E472FD71E4089544
:100390000E9407024130E1F308950E9407024130B4
:1003A000E1F70E94C8010C94000100E212E00E94F3
:1003B0000D1000E213E00E940D1000E214E00E9414
:1003C0000D1000E215E00E940D1000E216E00E9400
:1003D0000D1000E217E00E940D1008959CE0A4E6C5
:1003E000B4E6BA95F1F7AA95D9F79A95C1F71DB178
:1003F000137F0EB10C601DB90EB900E000937F00B1
:1004000014B11F7205B1006D14B905B908950F93A9
:100410001F9303B14FEF4A95F1F713B100711071BB
:100420000117B9F740E0003009F441E01F910F9146
:0204300008952D
:00000001FF
